S010000054696D657254776F2E73726563D9
S11300000C9462000C948A000C948A000C948A006C
S11300100C948A000C948A000C948A000C948A0034
S11300200C948A000C9427040C948A000C948A0083
S11300300C948A000C948A000C948A000C948A0014
S11300400C9498040C948A000C948A000C948A00F2
S11300500C948A000C948A000C948A000C948A00F4
S11300600C948A000C948A0000000008000201002D
S1130070000304070000000000000000010204085F
S113008010204080010204081020010204081020FE
S1130090040404040404040402020202020203032A
S11300A003030303000000002300260029000000CE
S11300B00000250028002B00000000002400270079
S11300C02A00780411241FBECFEFD8E0DEBFCDBFD5
S11300D011E0A0E0B1E0E4ECFBE002C005900D9279
S11300E0A030B107D9F721E0A0E0B1E001C01D9232
S11300F0A731B207E1F710E0C2E6D0E004C02197CF
S1130100FE010E94DA05C136D107C9F70E948904AD
S11301100C94E0050C940000CF93DF93CDB7DEB7C9
S11301208DE00E94B10521E0892B09F020E0822FA7
S1130130682F8DE00E9482050000DF91CF91089521
S1130140CF93DF93CDB7DEB761E08DE00E94460523
S113015080910001909101012CE830E042EC5FE3D2
S113016060E070E00E9438018091000190910101EB
S11301700E94AA0380910001909101014FE763E07E
S11301800E94F70280910001909101014AE06BE026
S11301900E94F7020000DF91CF910895CF93DF937F
S11301A0CDB7DEB70000DF91CF910895CF93DF93F1
S11301B000D0CDB7DEB79A83898389819A81FC0107
S11301C080819181FC01099500000F900F90DF91CF
S11301D0CF910895CF93DF9300D0CDB7DEB79A8344
S11301E0898389819A81FC01128289819A81FC0127
S11301F01182108289819A81FC01138200000F9080
S11302000F90DF91CF910895CF93DF9300D0CDB7B6
S1130210DEB79A83898300000F900F90DF91CF910E
S11302200895CF93DF93CDB7DEB78AE091E00E94C3
S11302300401DF91CF910895CF93DF93CDB7DEB75B
S113024082E091E0FC018081882369F48AE091E0F6
S11302500E94EA0082E091E021E0FC01208381E138
S113026091E00E9485048AE091E0DF91CF910895A6
S1130270CF93DF93CDB7DEB729970FB6F894DEBFDF
S11302800FBECDBF9B838A834C835D836E837F8344
S11302903987288781E089838A819B81FC01828157
S11302A0882309F051C0198280EB90E0FC01108290
S11302B081EB90E0FC01108280EB90E020EB30E0D9
S11302C0F90120812160FC01208380EB90E020EB88
S11302D030E0F90120812D7FFC01208381EB90E047
S11302E021EB30E0F90120812860FC0120838C811E
S11302F09D81AE81BF812A813B81AC01BD01C901D1
S11303000E94AE01982F81E0913009F080E08823AB
S113031011F081E0898388859985892B81F028856E
S113032039858A819B81B9010E94F903982F81E064
S1130330913009F080E0882311F081E089838A817B
S11303409B8121E0FC012283898129960FB6F894D0
S1130350DEBF0FBECDBFDF91CF910895CF93DF9362
S1130360CDB7DEB72F970FB6F894DEBF0FBECDBF63
S11303709B878A874C875D876E877F8781E0898327
S113038080E090E8A0E0B0E08E839F83A887B987DF
S11303908C859D85AE85BF8581309048A105B105CA
S11303A008F01BC119828C859D85AE85BF85880F99
S11303B0991FAA1FBB1F880F991FAA1FBB1F880F55
S11303C0991FAA1FBB1F8A839B83AC83BD838A8129
S11303D09B81AC81BD818F3F9105A105B10509F0D9
S11303E030F48A859B8521E0FC012383DBC08A816C
S11303F09B81AC81BD81689412F8B695A7959795B9
S113040087951694D1F78A839B83AC83BD8321E0BF
S11304108A819B81AC81BD818F3F9105A105B10586
S113042011F008F020E0222331F08A859B8522E038
S1130430FC012383B7C08A819B81AC81BD81B695C1
S1130440A79597958795B695A795979587958A8348
S11304509B83AC83BD8321E08A819B81AC81BD8178
S11304608F3F9105A105B10511F008F020E022238A
S113047031F08A859B8523E0FC01238393C08A8124
S11304809B81AC81BD81B695A795979587958A8305
S11304909B83AC83BD8321E08A819B81AC81BD8138
S11304A08F3F9105A105B10511F008F020E022234A
S11304B031F08A859B8524E0FC01238373C08A8103
S11304C09B81AC81BD81B695A795979587958A83C5
S11304D09B83AC83BD8321E08A819B81AC81BD81F8
S11304E08F3F9105A105B10511F008F020E022230A
S11304F031F08A859B8525E0FC01238353C08A81E2
S11305009B81AC81BD81B695A795979587958A8384
S11305109B83AC83BD8321E08A819B81AC81BD81B7
S11305208F3F9105A105B10511F008F020E02223C9
S113053031F08A859B8526E0FC01238333C08A81C0
S11305409B81AC81BD81B695A79597958795B69506
S1130550A795979587958A839B83AC83BD8321E078
S11305608A819B81AC81BD818F3F9105A105B10535
S113057011F008F020E0222331F08A859B8527E0E2
S1130580FC0123830FC08FEF90E0A0E0B0E08A83EA
S11305909B83AC83BD838A859B8527E0FC012383F1
S11305A081E0898383EB90E02A81FC0120838A85A2
S11305B09B85FC018281823081F481EB90E021EB08
S11305C030E0F9012081422F487F2A853B85F901DB
S11305D023812770242BFC01208389812F960FB659
S11305E0F894DEBF0FBECDBFDF91CF910895CF93B6
S11305F0DF9300D000D01F92CDB7DEB79B838A83F0
S11306006C834D8381E089838A819B81FC01828193
S1130610813061F08A819B81FC018281823031F0DA
S11306208A819B81FC018281833091F58C818330A6
S113063079F4198261E083E00E94460580EB90E042
S113064020EB30E0F90120812062FC01208311C0FD
S11306508C818B3071F4198261E08BE00E94460535
S113066080EB90E020EB30E0F90120812068FC0170
S113067020838A819B814D816C810E945103982F34
S113068081E0913009F080E0882311F081E08983D2
S113069089810F900F900F900F900F90DF91CF9161
S11306A00895CF93DF93CDB7DEB729970FB6F894AB
S11306B0DEBF0FBECDBF9F838E836887498781E0ED
S11306C089838E819F81FC018281813061F08E81DA
S11306D09F81FC018281823031F08E819F81FC01F7
S11306E08281833069F583EB90E0FC018081482F9F
S11306F050E08985282F30E0429FC001439F900D30
S1130700529F900D1124092E000CAA0BBB0B8A8357
S11307109B83AC83BD838A819B81AC81BD81892FFE
S11307209A2FAB2FBB278A839B83AC83BD83888599
S1130730833031F4198284EB90E02A81FC01208318
S1130740898129960FB6F894DEBF0FBECDBFDF9125
S1130750CF910895CF93DF9300D01F92CDB7DEB72A
S11307609B838A838A819B81FC018281813031F061
S11307708A819B81FC0182818330A1F582EB90E028
S1130780FC01108281EB90E021EB30E0F901208143
S1130790422F487F2A813B81F90123812770242B32
S11307A0FC0120838A819B81FC0180819181892BBA
S11307B091F082EB90E0FC01808189838981882318
S11307C009F4F7CF80E790E020E730E0F9012081D9
S11307D02160FC0120838A819B8122E0FC01228329
S11307E080E001C081E00F900F900F90DF91CF91D6
S11307F00895CF93DF9300D000D0CDB7DEB79A83AE
S113080089837C836B838B819C81892BC1F0898153
S11308109A812B813C81FC013183208389819A81D7
S1130820FC018281823049F480E790E020E730E0E7
S1130830F90120812160FC01208380E001C081E076
S11308400F900F900F900F90DF91CF9108951F920A
S11308500F9200905F000F9211242F933F934F93B8
S11308605F936F937F938F939F93AF93BF93EF9314
S1130870FF93CF93DF93CDB7DEB7809100019091C2
S113088001010E94D6000000DF91CF91FF91EF910A
S1130890BF91AF919F918F917F916F915F914F9194
S11308A03F912F910F9000925F000F901F90189529
S11308B0CF93DF9300D000D0CDB7DEB79A8389837E
S11308C07C836B8389819A81019751F48B819C810C
S11308D0019631F40E941C01909301018093000160
S11308E000000F900F900F900F90DF91CF9108951B
S11308F0CF93DF93CDB7DEB76FEF7FEF81E090E06A
S11309000E945804DF91CF91089580E090E008950B
S113091008950E94E2040E9488040E94A000C0E09E
S1130920D0E00E94CE002097E1F30E940000F9CFAE
S11309301F920F920FB60F9211242F933F938F9310
S11309409F93AF93BF9380910F0190911001A09159
S11309501101B091120130910E0123E0230F2D37C4
S113096020F40196A11DB11D05C026E8230F0296AF
S1130970A11DB11D20930E0180930F0190931001CE
S1130980A0931101B093120180911301909114016D
S1130990A0911501B09116010196A11DB11D80937E
S11309A0130190931401A0931501B0931601BF9104
S11309B0AF919F918F913F912F910F900FBE0F9008
S11309C01F901895789484B5826084BD84B5816045
S11309D084BD85B5826085BD85B5816085BDEEE643
S11309E0F0E0808181608083E1E8F0E01082808122
S11309F082608083808181608083E0E8F0E0808190
S1130A0081608083E1EBF0E0808184608083E0EBAF
S1130A10F0E0808181608083EAE7F0E08081846097
S1130A2080838081826080838081816080838081F3
S1130A30806880831092C1000895833081F028F487
S1130A40813099F08230A1F008958730A9F0883080
S1130A50B9F08430D1F4809180008F7D03C08091FF
S1130A6080008F7780938000089584B58F7702C0CB
S1130A7084B58F7D84BD08958091B0008F7703C0C5
S1130A808091B0008F7D8093B0000895CF93DF9361
S1130A9090E0FC01E458FF4F2491FC01E057FF4F24
S1130AA08491882361F190E0880F991FFC01E85438
S1130AB0FF4FC591D491FC01E255FF4FA591B4912C
S1130AC0611109C09FB7F894888120958223888397
S1130AD0EC912E230BC0623061F49FB7F8948881A7
S1130AE0322F309583238883EC912E2B2C939FBF38
S1130AF006C08FB7F894E8812E2B28838FBFDF912F
S1130B00CF9108951F93CF93DF93282F30E0F901FD
S1130B10E859FF4F8491F901E458FF4FD491F9014A
S1130B20E057FF4FC491CC23C1F0162F81110E94CE
S1130B301D05EC2FF0E0EE0FFF1FE255FF4FA591CE
S1130B40B4919FB7F894111104C08C91D095D82317
S1130B5002C0EC91DE2BDC939FBFDF91CF911F91FC
S1130B600895CF93DF93282F30E0F901E859FF4F20
S1130B708491F901E458FF4FD491F901E057FF4FF4
S1130B80C491CC2391F081110E941D05EC2FF0E05B
S1130B90EE0FFF1FEC55FF4FA591B491EC91ED239F
S1130BA081E090E021F480E002C080E090E0DF91F9
S1130BB0CF910895EE0FFF1F0590F491E02D099455
S1070BC0F894FFCFD3
S9030000FC
