S010000054696D657254776F2E73726563D9
S11300000C9435000C945D000C945D000C945D0020
S11300100C945D000C945D000C945D000C945D00E8
S11300200C945D000C947D010C945D000C945D00B7
S11300300C945D000C945D000C945D000C945D00C8
S11300400C94C1010C945D000C945D000C945D0053
S11300500C945D000C945D000C945D000C945D00A8
S11300600C945D000C945D00A70111241FBECFEF1A
S1130070D8E0DEBFCDBF11E0A0E0B1E0ECE9F4E0F0
S113008002C005900D92A030B107D9F721E0A0E09D
S1130090B1E001C01D92A931B207E1F710E0C5E358
S11300A0D0E004C02197FE010E944602C433D10768
S11300B0C9F70E94B2010C944C020C940000CF9337
S11300C0DF93C0910E01D0910F0120E030E048EEA3
S11300D053E060E070E0CE010E944101CE01DF9167
S11300E0CF910C940B01089508958091060181111C
S11300F00FC0109200011092050110920401109299
S1130100010181E08093060184E790E00E94AE0142
S113011080E091E00895FC01413080E858076105D2
S1130120710508F076C083E0440F551F661F771FE2
S11301308A95D1F74F3F51056105710509F010F417
S113014081E00EC0B3E07695679557954795BA95CB
S1130150D1F74F3F51056105710509F020F482E0A4
S1130160818380E048C0A2E07695679557954795CE
S1130170AA95D1F74F3F51056105710509F010F4B7
S113018083E0EECF76956795579547954F3F510598
S11301906105710509F010F484E0E2CF7695679566
S11301A0579547954F3F51056105710509F010F4C6
S11301B085E0D6CF76956795579547954F3F51057E
S11301C06105710509F010F486E0CACF82E07695E6
S11301D06795579547958A95D1F787E081834115AF
S11301E081E058076105710509F0BBCF4FEF50E07E
S11301F060E070E081E04093B3009081933051F46B
S11302009091B10021812770987F922B9093B10037
S1130210089580E00895FC018081823011F08430DB
S1130220D9F41092B2009091B10081818770987FC7
S1130230982B9093B10084819581892B49F080910A
S1130240B2008823E1F38091700081608093700094
S113025083E0808380E0089581E00895611571054D
S113026061F0FC01758364838081833041F4809163
S1130270700081608093700002C081E0089580E086
S11302800895EF92FF921F93CF93DF93DC01EC91DB
S1130290E1112BC07901EC0181E088831092B00058
S11302A01092B1008091B00081608093B000809181
S11302B0B0008D7F8093B0008091B10088608093FE
S11302C0B100CD010E948B0011E0813009F010E0F3
S11302D0E114F10439F0B701CE010E942E018130FE
S11302E009F411E082E0888301C011E0812FDF91DD
S11302F0CF911F91FF90EF9008951F920F920FB628
S11303000F9211242F933F934F935F936F937F9397
S11303108F939F93AF93BF93EF93FF93E0910E015D
S1130320F0910F010480F581E02D0995FF91EF9183
S1130330BF91AF919F918F917F916F915F914F91F9
S11303403F912F910F900FBE0F901F9018950E9410
S1130350750090930F0180930E01089580E090E062
S1130360089508950E940B020E94B1010E945F004B
S1130370C0E0D0E00E9473002097E1F30E940000E7
S1130380F9CF1F920F920FB60F9211242F933F9320
S11303908F939F93AF93BF9380911101909112011A
S11303A0A0911301B09114013091100123E0230FA7
S11303B02D3720F40196A11DB11D05C026E8230F99
S11303C00296A11DB11D20931001809311019093F9
S11303D01201A0931301B09314018091150190911F
S11303E01601A0911701B09118010196A11DB11D2C
S11303F08093150190931601A0931701B0931801EF
S1130400BF91AF919F918F913F912F910F900FBE0C
S11304100F901F901895789484B5826084BD84B53C
S1130420816084BD85B5826085BD85B5816085BDEB
S1130430EEE6F0E0808181608083E1E8F0E0108204
S1130440808182608083808181608083E0E8F0E045
S1130450808181608083E1EBF0E08081846080832F
S1130460E0EBF0E0808181608083EAE7F0E0808166
S113047084608083808182608083808181608083C6
S11304808081806880831092C1000895EE0FFF1F61
S10F04900590F491E02D0994F894FFCF3E
S9030000FC
