:100000000C9435000C945D000C945D000C945D0024
:100010000C945D000C945D000C945D000C945D00EC
:100020000C945D000C9457010C945D000C945D00E1
:100030000C945D000C945D000C945D000C945D00CC
:100040000C9495010C945D000C945D000C945D0083
:100050000C945D000C945D000C945D000C945D00AC
:100060000C945D000C945D007E0111241FBECFEF47
:10007000D8E0DEBFCDBF11E0A0E0B1E0E4E4F4E001
:1000800002C005900D92A030B107D9F721E0A0E0A1
:10009000B1E001C01D92AF30B207E1F710E0C5E357
:1000A000D0E004C02197FE010E941A02C433D10798
:1000B000C9F70E9486010C9420020C94000020E0F5
:1000C00030E048EE53E060E070E080E091E00E94B4
:1000D0001B0180E091E00C94E5000895FC0183E0B1
:1000E000440F551F661F771F8A95D1F74F3F510563
:1000F0006105710509F010F481E00EC0B3E076955A
:10010000679557954795BA95D1F74F3F51056105CA
:10011000710509F020F482E0818380E048C0A2E00C
:100120007695679557954795AA95D1F74F3F510515
:100130006105710509F010F483E0EECF76956795BF
:10014000579547954F3F51056105710509F010F42A
:1001500084E0E2CF76956795579547954F3F5105D7
:100160006105710509F010F485E0D6CF76956795A5
:10017000579547954F3F51056105710509F010F4FA
:1001800086E0CACF82E076956795579547958A9520
:10019000D1F787E081834F3F51056105710509F073
:1001A00008F4BBCF4FEF50E060E070E081E0409397
:1001B000B3009081933041F49091B1002181277078
:1001C000987F922B9093B1000895FC01808182303A
:1001D00011F08430D9F41092B2009091B100818175
:1001E0008770987F982B9093B10084819581892B9B
:1001F00049F08091B2008823E1F380917000816022
:100200008093700083E0808380E0089581E008950A
:100210006115710561F0FC01758364838081833011
:1002200041F48091700081608093700002C081E091
:10023000089580E00895EF92FF921F93CF93DF938C
:10024000DC01EC91E1112BC07901EC0181E08883A4
:100250001092B0001092B1008091B0008160809344
:10026000B0008091B0008D7F8093B0008091B1008C
:1002700088608093B100CD010E946E0011E0813052
:1002800009F010E0E114F10439F0B701CE010E9449
:100290000801813009F411E082E0888301C011E097
:1002A000812FDF91CF911F91FF90EF9008951F92C2
:1002B0000F920FB60F9211242F933F934F935F939A
:1002C0006F937F938F939F93AF93BF93EF93FF931E
:1002D000E0910401F09105010995FF91EF91BF9123
:1002E000AF919F918F917F916F915F914F913F91CE
:1002F0002F910F900FBE0F901F901895E0E0F1E046
:100300001082158214821182089508950E94DF01DF
:100310000E9485010E945F00C0E0D0E00E946D0055
:100320002097E1F30E940000F9CF1F920F920FB6C1
:100330000F9211242F933F938F939F93AF93BF936B
:100340008091070190910801A0910901B0910A01E3
:100350003091060123E0230F2D3720F40196A11DD3
:10036000B11D05C026E8230F0296A11DB11D2093E3
:1003700006018093070190930801A0930901B093AF
:100380000A0180910B0190910C01A0910D01B09197
:100390000E010196A11DB11D80930B0190930C01DC
:1003A000A0930D01B0930E01BF91AF919F918F91DA
:1003B0003F912F910F900FBE0F901F90189578943A
:1003C00084B5826084BD84B5816084BD85B582605A
:1003D00085BD85B5816085BDEEE6F0E080818160F8
:1003E0008083E1E8F0E010828081826080838081F8
:1003F00081608083E0E8F0E0808181608083E1EBD0
:10040000F0E0808184608083E0EBF0E080818160B7
:100410008083EAE7F0E0808184608083808182606D
:100420008083808181608083808180688083109256
:10043000C1000895EE0FFF1F0590F491E02D09947F
:04044000F894FFCF5E
:00000001FF
