:100000000C9435000C945D000C945D000C945D0024
:100010000C945D000C945D000C945D000C949C00AD
:100020000C945D000C945D000C945D000C945D00DC
:100030000C945D000C945D000C945D000C945D00CC
:100040000C94E0000C945D000C945D000C945D0039
:100050000C945D000C945D000C945D000C945D00AC
:100060000C945D000C945D00C60011241FBECFEF00
:10007000D8E0DEBFCDBF11E0A0E0B1E0EAEDF2E0F4
:1000800002C005900D92A030B107D9F721E0A0E0A1
:10009000B1E001C01D92A731B207E1F710E0C5E35E
:1000A000D0E004C02197FE010E946501C433D1074E
:1000B000C9F70E94D1000C946B010C940000809150
:1000C0000C0190910D010C947D000895089580918C
:1000D000040181110FC010920001109203011092CF
:1000E00002011092010181E08093040186E690E014
:1000F0000E94CD0080E091E00895FC018081823073
:1001000011F08430B9F41092B2009091B100818165
:100110008770987F982B9093B10082819381892B6F
:1001200029F08091700082608093700083E080836A
:1001300080E0089581E008951F920F920FB60F920C
:1001400011242F933F934F935F936F937F938F93DC
:100150009F93AF93BF93EF93FF93E0910C01F091C6
:100160000D010280F381E02D0995FF91EF91BF9180
:10017000AF919F918F917F916F915F914F913F913F
:100180002F910F900FBE0F901F9018950E9467003F
:1001900090930D0180930C01089580E090E0089504
:1001A00008950E942A010E94D0000E945F00C0E0D2
:1001B000D0E00E9465002097E1F30E940000F9CF93
:1001C0001F920F920FB60F9211242F933F938F938C
:1001D0009F93AF93BF9380910F0190911001A091D5
:1001E0001101B091120130910E0123E0230F2D3740
:1001F00020F40196A11DB11D05C026E8230F02962B
:10020000A11DB11D20930E0180930F019093100149
:10021000A0931101B09312018091130190911401E8
:10022000A0911501B09116010196A11DB11D8093F9
:10023000130190931401A0931501B0931601BF917F
:10024000AF919F918F913F912F910F900FBE0F9083
:100250001F901895789484B5826084BD84B58160C0
:1002600084BD85B5826085BD85B5816085BDEEE6BE
:10027000F0E0808181608083E1E8F0E0108280819D
:1002800082608083808181608083E0E8F0E080810B
:1002900081608083E1EBF0E0808184608083E0EB2B
:1002A000F0E0808181608083EAE7F0E08081846013
:1002B000808380818260808380818160808380816F
:1002C000806880831092C1000895EE0FFF1F059093
:0A02D000F491E02D0994F894FFCF9B
:00000001FF
