:100000000C9435000C945D000C945D000C945D0024
:100010000C945D000C945D000C945D000C945D00EC
:100020000C945D000C945D000C945D000C944C01EC
:100030000C945D000C945D000C945D000C945D00CC
:100040000C948A010C945D000C945D000C945D008E
:100050000C945D000C945D000C945D000C945D00AC
:100060000C945D000C945D00730111241FBECFEF52
:10007000D8E0DEBFCDBF11E0A0E0B1E0EEE2F4E0F9
:1000800002C005900D92A030B107D9F721E0A0E0A1
:10009000B1E001C01D92AF30B207E1F710E0C5E357
:1000A000D0E004C02197FE010E940F02C433D107A3
:1000B000C9F70E947B010C9415020C94000020E00B
:1000C00030E048EE53E060E070E080E091E00E94B4
:1000D0000B0180E091E00C94D4000895FC01A4E0B1
:1000E000440F551F661F771FAA95D1F7411551057B
:1000F00081E06807710510F481E00EC033E0769569
:100100006795579547953A95D1F74115510581E087
:100110006807710520F482E0818380E032C023E02B
:1001200076956795579547952A95D1F741155105CD
:1001300081E06807710510F483E0EECF92E07695D8
:100140006795579547959A95D1F74115510581E0E7
:100150006807710510F484E0DFCF82E0769567953B
:10016000579547958A95D1F785E0818341155105CB
:1001700081E06807710588F24FEF5FEF60E070E0A3
:1001800081E09FB7F89450938700409386009FBF0B
:100190009081933041F49091810021812770987F64
:1001A000922B909381000895FC018081823011F0A0
:1001B0008430E1F48FB7F894109285001092840097
:1001C0008FBF9091810081818770987F982B909349
:1001D000810084819581892B29F080916F00826054
:1001E00080936F0083E0808380E0089581E008952C
:1001F0006115710561F0FC01758364838081833032
:1002000041F480916F00826080936F0002C081E0B2
:10021000089580E00895EF92FF921F93CF93DF93AC
:10022000DC01EC91E11130C07901EC0181E08883BF
:100230001092800010928100809180008E7F8093C8
:100240008000809180008D7F80938000809181006C
:10025000886080938100809181008061809381001B
:10026000CD010E946E0011E0813009F010E0E11430
:10027000F10439F0B701CE010E94F800813009F491
:1002800011E082E0888301C011E0812FDF91CF91DE
:100290001F91FF90EF9008951F920F920FB60F924B
:1002A00011242F933F934F935F936F937F938F937B
:1002B0009F93AF93BF93EF93FF93E0910401F0916D
:1002C00005010995FF91EF91BF91AF919F918F919A
:1002D0007F916F915F914F913F912F910F900FBE42
:1002E0000F901F901895E0E0F1E0108215821482C3
:1002F0001182089508950E94D4010E947A010E94FB
:100300005F00C0E0D0E00E946D002097E1F30E9402
:100310000000F9CF1F920F920FB60F9211242F9366
:100320003F938F939F93AF93BF93809107019091D9
:100330000801A0910901B0910A013091060123E062
:10034000230F2D3720F40196A11DB11D05C026E80D
:10035000230F0296A11DB11D209306018093070172
:1003600090930801A0930901B0930A0180910B01B9
:1003700090910C01A0910D01B0910E010196A11D6B
:10038000B11D80930B0190930C01A0930D01B093CC
:100390000E01BF91AF919F918F913F912F910F903F
:1003A0000FBE0F901F901895789484B5826084BD1D
:1003B00084B5816084BD85B5826085BD85B5816069
:1003C00085BDEEE6F0E0808181608083E1E8F0E0C9
:1003D0001082808182608083808181608083E0E8F8
:1003E000F0E0808181608083E1EBF0E080818460D7
:1003F0008083E0EBF0E0808181608083EAE7F0E0D9
:10040000808184608083808182608083808181603C
:1004100080838081806880831092C1000895EE0FF0
:0E042000FF1F0590F491E02D0994F894FFCF92
:00000001FF
